:020000040800F2
:10000000900900202D02000847190008D3180008A5
:1000100045190008A5040008292200080000000076
:10002000000000000000000000000000F51A0008B9
:10003000A70400080000000049190008F71A00088A
:10004000470200084702000847020008470200086C
:10005000470200084702000847020008470200085C
:10006000470200084702000847020008470200084C
:10007000470200084702000847020008470200083C
:10008000470200084702000847020008470200082C
:10009000470200084702000847020008470200081C
:1000A000470200084702000847020008470200080C
:1000B000470200080000000000000000470200089E
:1000C00047020008470200084702000847020008EC
:1000D00047020008112200081D22000847020008FC
:1000E000470200084702000800000000000000006E
:1000F0000000000000000000000000000000000000
:10010000000000004702000800000000470200084D
:10011000000000000000000047020008470200083D
:10012000470200084702000847020008470200088B
:10013000470200080000000000000000000000006E
:1001400047020008470200084702000800000000BC
:10015000470200084702000847020008470200085B
:10016000470200084702000847020008000000009C
:1001700047020008470200080000000000000000DD
:1001800047020008470200084702000800F002F892
:1001900000F03CF80AA090E8000C82448344AAF1E5
:1001A0000107DA4501D100F031F8AFF2090EBAE8E3
:1001B0000F0013F0010F18BFFB1A43F0010318479B
:1001C000CC220000EC220000103A24BF78C878C18D
:1001D000FAD8520724BF30C830C144BF04680C604D
:1001E000704700000023002400250026103A28BF95
:1001F00078C1FBD8520728BF30C148BF0B60704799
:100200001FB502F019F91FBD10B510BD00F017F9A8
:100210001146FFF7F5FF02F033F800F035F903B4AB
:10022000FFF7F2FF03BC02F010F800000948804716
:1002300009480047FEE7FEE7FEE7FEE7FEE7FEE7C8
:10024000FEE7FEE7FEE7FEE704480549054A064BE0
:10025000704700005D1B00088D010008900300201E
:10026000900900209005002090050020704753EA77
:10027000020C00F069802DE9F04B4FF00006002BD6
:100280001FBFB3FA83F503FA05F424FA05F65E40BE
:1002900012BF1643B2FA82F502FA05F4C5F1200541
:1002A0001EBF22FA05FC44EA0C04203556EA044C31
:1002B0004FEA144418BF641C4FF000084FF00009C7
:1002C000904271EB030C39D3002919BFB1FA81F7C1
:1002D00001FA07F6B0FA80F700FA07F6C7F120072F
:1002E0001EBF20FA07FC46EA0C062037B6FBF4FCDA
:1002F000A7EB0507103F07F01F0BCBF120060CFA08
:100300000BFB2CFA06F644BFB3460026202FA4BFF1
:100310005E464FF0000B5BEA060C08BF4FF0010B86
:1003200019EB0B09ABFB027C48EB0608C01B06FB74
:1003300002CC0BFB03CC71EB0C01C1E70B46024670
:1003400041464846BDE8F08B13B54FF000004FF032
:100350000001AFF30080BDE81C4070470FB41CB52E
:10036000074B06AA7B4469460090059800F03BF8CD
:100370000020694600F04AF81CBC5DF814FB000040
:10038000A50000004FF0000200B5134694469646C3
:10039000203922BFA0E80C50A0E80C50B1F1200198
:1003A000BFF4F7AF090728BFA0E80C5048BF0CC046
:1003B0005DF804EB890028BF40F8042B08BF7047A4
:1003C00048BF20F8022B11F0804F18BF00F8012B16
:1003D00070477047704770477047000001694A1CBA
:1003E00002610878704700B58FB0CDE90131002176
:1003F000059105497944CDE903101146684600F09E
:100400000AF80FB000BD0000E5FFFFFF0A6802F820
:10041000010B0A6070472DE9F04106460024D6E939
:100420000170F5688046304603E04146B847641CD9
:100430003046A8470028F8D12046BDE8F08175462F
:1004400000F02CF8AE4605006946534620F0070040
:10045000854618B020B5FFF7F7FEBDE820404FF005
:1004600000064FF000074FF000084FF0000B21F09E
:100470000701AC46ACE8C009ACE8C009ACE8C0096B
:10048000ACE8C0098D46704710B50446AFF3008054
:100490002046BDE81040FFF7C2BE0000004870478C
:1004A0002C030020FEE7704772B6FEE710B590F807
:1004B00025100022022905D00421C16380F82420E0
:1004C000012010BD01680B6823F00E030B6001686A
:1004D0000B6823F001030B6090F84410046C01F0EA
:1004E0001C03012101FA03F3636080F8251080F8F2
:1004F0002420104610BD10B590F8251000240229C4
:1005000003D00421C16301241AE001680A6822F0C3
:100510000E020A6001680A6822F001020A6090F87F
:100520004410036C01F01C02012101FA02F25A602E
:1005300080F82510002180F82410816B01B18847D4
:10054000204610BD70B5044600F0FEF80546601C5C
:1005500002D004480078044400F0F6F8401BA042A2
:10056000FAD370BD0C0000202DE9F04FDFF8AC91FC
:1005700000230325A9F1040B85B04FF0010C0F27D0
:1005800009F1040AABF1040EBFE000BF0CFA03F658
:10059000324075D00C7904F00304012C01D0022CF8
:1005A0001BD1846800945C0005FA04F80494009C54
:1005B00024EA08040094D1F80C80049C08FA04F89A
:1005C000009C48EA0408C0F808804468B4430E79E7
:1005D000C6F300169E40264346600C79E443A40708
:1005E0000AD0C4684FEA430805FA08F6B4438E6897
:1005F00006FA08F62643C6600C7904F00304022CC0
:1006000010D1DC0800EB84040294246A5E074FEAF0
:10061000D66807FA08F6B4430E6906FA08F62643C8
:10062000029C266204684FEA430805FA08F6B443C0
:100630000E7906F0030606FA08F6264306604C68B3
:1006400014F4403F60D0364C266E46F00106266614
:10065000246E23F0030604F001040094314C34446A
:100660000294A4689E074FEA167807FA08F6B44386
:10067000B0F1904F05D02C4EB04204D1012612E0CB
:1006800042E000260FE0294EB04201D102260AE0E6
:10069000274EB04201D1032605E0264EB04201D1DB
:1006A000042600E0072606FA08F62643029CA66008
:1006B000D9F800604C46D1F8048096435FEAC82818
:1006C00000D516432660DAF800405646D1F804807B
:1006D00094435FEA882800D514433460DBF8004077
:1006E0005E46D1F8048094435FEA883800D514430D
:1006F0003460DEF800407646D1F8048094435FEA27
:10070000C83800D5144334605B1C0A6832FA03F41D
:100710007FF43CAF05B000F00FB8000008040140C2
:10072000001002400000014000040048000800489A
:10073000000C00480010004830BCBDE8C08F0AB172
:10074000816170478162704701488068704700008E
:100750000C000020024881680278114481607047D3
:100760000C00002010B50024032000F071F80F20C9
:1007700000F008F808B1012401E000F025F8204657
:1007800010BD000070B50E4E05460024307898B1BB
:100790004FF47A71B1FBF0F00A490968B1FBF0F04F
:1007A00000F0CAFD40B9102D06D200222946501E85
:1007B00000F02EF8756000E00124204670BD0000B6
:1007C0000C00002018000020094808B5016E41F017
:1007D00001010166016E01F001010091816D41F09E
:1007E00080518165806D00F08050009008BD000050
:1007F00000100240002809DB00F01F020121914097
:100800004009800000F1E020C0F8001170470000AE
:10081000F0B40E4B1B680C46C3F30223C3F107056B
:10082000042D00D90425191D072901D2002300E059
:10083000DB1E012606FA05F1491E214099409E4023
:10084000761E16403143F0BC01F0EFBC0CED00E029
:10085000064900F0070208684FF6FF03184040EA17
:100860000220034A10430860704700000CED00E0CE
:100870000000FA051649B0F5007F0868C0F3412072
:1008800009D0022805D0086820F4C06040F48060D8
:100890000860002070470128FBD0086820F4C06081
:1008A00040F4007008600B483222006850430A4A46
:1008B000B0FBF2F0401C00E0401E4A69520501D531
:1008C0000028F9D148694005E3D5032070470000AE
:1008D000007000401800002040420F0002480068ED
:1008E00000F4C06070470000007000402DE9F84F30
:1008F000044600270088A84D3E46000515D5606CCB
:1009000060B1B0F5000F04D0B0F5400F2BD0012737
:100910000AE0E86840F48030E86024E00021201D0F
:1009200001F014F807001ED03E46206880033AD537
:10093000A86D4FF00008C00009D4A86D40F08050A9
:10094000A865A86D4FF0010800F080500090DFF816
:100950004CA2DAF8001041F48071CAF80010FFF7D9
:10096000F3FE814610E0D5F88800616C20F4400069
:100970000843C5F88800D8E7FFF7E6FEA0EB0900BA
:10098000022801D9032705E0DAF80000C005F3D5F5
:10099000002F7DD04FEA0706B8F1000F03D0A86DF5
:1009A00020F08050A8652078C00707D0D5F88800CF
:1009B000216A20F003000843C5F8880020788007EA
:1009C00007D5D5F88800616A20F00C000843C5F807
:1009D00088002078400707D5D5F88800A16A20F064
:1009E00030000843C5F888002078800607D5D5F880
:1009F0008800E16A20F440600843C5F88800208838
:100A0000800507D5D5F88800E16B20F44020084325
:100A1000C5F888002088400507D5D5F88800216CE6
:100A200020F440100843C5F888002078400607D518
:100A3000D5F88800216B20F440500843C5F88800A1
:100A40002078000607D5D5F88800616B20F4404077
:100A50000843C5F888002088C00507D5D5F8880068
:100A6000A16B20F440300843C5F8880020684FF09F
:100A7000006700034FF0806850D5D5F88800A16C5E
:100A800020F040600843C5F88800A06CB84200E040
:100A900005E03BD1E86840F48010E8603EE0D5F81E
:100AA000900010F4407014D0A16D814211D0D5F89F
:100AB0009000D5F8901020F4407041F48031C5F8D2
:100AC0009010D5F8901021F48031C5F89010C5F839
:100AD0009000C00711D0FFF737FE074641F2883972
:100AE00007E000BFFFF730FEC11B494501D90326CF
:100AF00052E7D5F890008007F4D5D5F89000A16DA5
:100B000020F440700843C5F8900045E7404505D102
:100B10000121201D00F01AFF00B1064620684003A5
:100B200017D5D5F88800E16C20F040600843C5F87F
:100B30008800E06CB84204D1E86840F48010E860B6
:100B400007E0404505D10121201D00F0FFFE00B166
:100B500006462088400411D5D5F88800216D20F084
:100B600040500843C5F88800206DB0F1805F05D182
:100B70000221201D00F0EAFE00B106462088000494
:100B800006D555F8880F616D20F080400843286035
:100B9000304600F005B80000001002400070004030
:100BA00018BCBDE8E08F00002DE9F0470F460500B6
:100BB0006BD0494E306800F00700B84209D2306867
:100BC00020F0070038433060306800F00700B8427A
:100BD0005BD12878414C80070AD5A868A16801F04C
:100BE000F001884204D9A16821F0F0010143A1601D
:100BF0002878C0072CD06868032811D0022812D0AA
:100C0000216898B1490500293FDAA16821F0030164
:100C10000143A160FFF798FD804641F2883910E05A
:100C200021688901EFE721688903ECE78907EAE792
:100C3000FFF78AFDA0EB0801494502D90320BDE872
:100C4000F087A068696800F00C00B0EB810FEFD16D
:100C5000287880070AD5A868A16801F0F0018842C9
:100C600004D2A16821F0F0010143A160306800F0D6
:100C70000700B8420BD9306820F0070038433060D5
:100C8000306800F00700B84201D00120D7E728788B
:100C9000400705D5A068E96820F4E0600843A0603B
:100CA0002878000706D5A068296920F4605040EA3A
:100CB000C100A06000F03EF8A168094AC1F3031129
:100CC000515C01F01F01C8400649086006480068F1
:100CD000BDE8F047FFF756BD00200240001002407B
:100CE0004424000818000020100000200548064990
:100CF00000688968054AC1F30221515C01F01F01B7
:100D0000C8407047180000200010024084240008EA
:100D10000548064900688968054AC1F3C221515C4B
:100D200001F01F01C8407047180000200010024069
:100D30008424000870B52549002318468A68CC68C9
:100D400012F00C0204F00306214C4FEA640509D0AE
:100D50000C2A05D0042A32D0082A00D1284670BDBA
:100D6000012E10D10B681B0704D4D1F89430C3F3C3
:100D7000032302E00B68C3F30313164E56F8233027
:100D8000DAB10C2AEBD1C86800F00300022818D0B1
:100D9000032818D01846CA68CB68C2F30212C3F3FE
:100DA00006234343521CB3FBF2F2C868C0F3416010
:100DB000401C4000B2FBF0F070BD184670BD2046EC
:100DC00070BD2046E7E72846E5E700000010024036
:100DD0000024F400542400082DE9F84304006FD0E7
:100DE000FA4DA86800F00C06E86800F003072078C8
:100DF000C00664D576B10C2E01D1012F0AD0A069AE
:100E0000002828687AD040F001002860FFF79CFC99
:100E100080465DE02868800702D5A0690028DED002
:100E2000216A2868000703D5286800F0F00004E074
:100E3000D5F89400F02202EA1010814216D9084633
:100E400000F01AFE00283BD1286840F00800286016
:100E50002868216A20F0F000084328606868E1698A
:100E600020F47F4040EA0120686016E0286840F0E6
:100E7000080028602868216A20F0F00008432860F4
:100E80006868E16920F47F4040EA0120686026B983
:100E9000206A00F0F1FD0028D5D1FFF74BFFA968CB
:100EA000CB4AC1F30311515C01F01F01C840C9498D
:100EB0000860C9480068FFF765FC00287ED12EE075
:100EC000CAE000BFFFF740FCA0EB0800022876D87C
:100ED00028688007F6D5286840F008002860286850
:100EE000216A20F0F000084328606868E16920F476
:100EF0007F4040EA0120686011E0FFE720F0010038
:100F00002860FFF721FC804606E000BFFFF71CFCCD
:100F1000A0EB08000228DAD828688007F6D42078E9
:100F2000C00740D0082E18D00C2E01D1032F14D0AA
:100F30006068B0F5803F17D0B0F5A02F286817D0B3
:100F400020F480302860286820F4802028606068C1
:100F5000E0B1FFF7F9FB804614E02868800322D552
:100F60006068002878D01EE0286840F48030EDE703
:100F700040F480202860F7E7FFF7E6FBA0EB0800CD
:100F80006428A4D828688003F6D50CE0FFF7DCFBC2
:100F9000804605E0FFF7D8FBA0EB0800642896D850
:100FA00028688003F6D4207880073BD5042E11D022
:100FB0000C2E01D1022F0DD0E06801E0AAE1FFE084
:100FC000002828681ED040F480702860FFF7BCFB22
:100FD00007460CE0286840050CD5E0680028C1D021
:100FE00008E000BFFFF7B0FBC01B022893D82868B9
:100FF0004005F7D56868217C20F0F85040EA016090
:1010000068600FE020F480702860FFF79DFB0746C2
:1010100005E000BFFFF798FBC01B0228B1D8286885
:101020004005F7D42078000729D560690028D5F855
:10103000940012D040F00100C5F89400FFF784FB43
:10104000074604E0FFF780FBC01B022899D8D5F8BB
:1010500094008007F6D512E02BE120F00100C5F8DE
:101060009400FFF771FB074605E000BFFFF76CFB3C
:10107000C01B022885D8D5F894008007F6D42078C4
:10108000400766D5A86D0027C00008D4A86D40F0C1
:101090008050A865A86D012700F0805000904F484F
:1010A0000168C90512D40168814641F4807101606C
:1010B000FFF74AFB804605E0FFF746FBA0EB080080
:1010C00002287DD8D9F80000C005F5D5A068012810
:1010D00016D00528D5F8900017D020F00100C5F8EB
:1010E0009000D5F8900020F0040000BFC5F89000F3
:1010F000A06841F28839C0B1FFF726FB80460FE0B7
:10110000D5F8900040F00100F0E740F00400C5F889
:101110009000F5E7FFF718FBA0EB080149454FD811
:10112000D5F890008007F5D50EE0FFF70DFB80465F
:1011300006E000BFFFF708FBA0EB080149453FD8D8
:10114000D5F890008007F5D41FB1A86D20F080502D
:10115000A8652078800628D5606A0028D5F8980010
:1011600012D040F00100C5F89800FFF7EDFA0746ED
:1011700005E000BFFFF7E8FAC01B022820D8D5F829
:1011800098008007F6D510E020F00100C5F898001F
:10119000FFF7DAFA074604E0FFF7D6FAC01B022889
:1011A0000ED8D5F898008007F6D4A06AF0B30228CC
:1011B00016D00C2E7DD0286820F08070286000E0CA
:1011C000A7E0FFF7C1FA0446A6E0000000100240C5
:1011D0004424000818000020100000200070004087
:1011E000E868E26A00F00301914228D1216B00F027
:1011F000700209011039914221D1626B00F4FE4165
:10120000B1EB022F1BD194F8382000F07841B1EBFC
:10121000C26F14D1A18F00F4C00249084905A1F59D
:10122000001191420BD194F8401000E06AE04908A7
:10123000490600F0C060A1F1007181424BD00C2E34
:1012400073D02868400170D4286820F0807028602E
:10125000FFF77AFA064604E0FFF776FA801B0228C9
:1012600057D828688001F7D4F4E90B016FF00F021A
:1012700002EB01110843218A5204490802EB415153
:10128000A26841EA02210843217D4FF07E424908CD
:1012900002EB41610843217B40EAC160E968244ACE
:1012A00011400843E860286840F080702860E868D2
:1012B00000E03AE040F08070E860FFF745FA04464D
:1012C00005E000BFFFF740FA001B022821D828687C
:1012D0008001F7D527E02868800124D4286840F0F1
:1012E00080702860E86840F08070E860FFF72CFAB2
:1012F000044604E0FFF728FA001B022809D82868F2
:101300008001F7D50FE000BFFFF71EFA001B02288F
:1013100002D90320BDE8F88328688001F4D4E86886
:1013200004490840E8600020F4E70120F2E70000EB
:101330008C809D01FCFFEEFE10B5401EB0F1807F59
:1013400001D3012010BD4FF0E02460610F21601730
:1013500000F06BFF0020A06107202061002010BD7D
:1013600070477047704700002DE9F041026804465D
:10137000D0691168936840F60F0528424FF00005C8
:101380004FF0020605D187067ED58F067CD5A16E6B
:101390002BE1DFF884C203F0010701EA0C0C57EAE5
:1013A0000C0C71D05FEAC07C0CD05FEAC15C09D53F
:1013B0004FF0010CC2F820C0D4F8842042F00102A2
:1013C000C4F88420820709D5DA0707D0226816629C
:1013D000D4F8842042F00402C4F8842042070AD5DD
:1013E000DA0708D0236804221A62D4F8842042F075
:1013F0000202C4F8842002070CD501F020023A430F
:1014000008D0236808221A62D4F8842042F0080227
:10141000C4F8842002050BD54A0109D523684FF48E
:1014200000621A62D4F8842042F02002C4F88420BA
:10143000D4F88420002A36D0800605D5880603D546
:10144000A16E09B120468847D4F8840021688968D4
:10145000490602D410F0280F27D0204600F048FC9F
:101460002068806840061BD52068083050E8001FBF
:1014700021F0400140E80012002AF5D1606F78B1F8
:1014800066498163606F00E015E0FFF734F80028DB
:1014900009D0606F816B00E02046BDE8F04108474D
:1014A0002046FFF75FFFBDE8F0812046FFF75AFFB7
:1014B000C4F88450F7E7D4F860C02027BCF1010FCE
:1014C0007ED15FEAC06C7FD55FEAC16C7CD510200D
:1014D000106220688068400643D5616F08684068E4
:1014E0000004000CDFD0B4F858208242DBD9A4F805
:1014F0005A000868006880062BD4216851E8000F64
:1015000020F4807041E80002002AF6D120680830FB
:1015100050E8001F21F0010140E80012002AF5D137
:101520002068083050E8001F21F0400140E8001218
:10153000002AF5D1C4F880702566206850E8001FA5
:1015400021F0100140E80012002AF6D1606FFEF78A
:10155000ADFF6666B4F85800B4F85A10401A81B26C
:101560002CE0B4F85800B4F85A10401A81B2B4F81C
:101570005A00002897D0002995D0226852E8000F21
:1015800020F4907042E80003002BF6D12068083068
:1015900050E8002F22F0010240E80023002BF5D193
:1015A000C4F880702566A566226852E8000F20F016
:1015B000100042E80003002BF6D16666204600E0EA
:1015C00002E0FFF7CDFE6EE7C60209D55B0207D544
:1015D0004FF4801010622046BDE8F041FFF7C1BE15
:1015E000020606D50A0604D5E16E00297FF454AF41
:1015F00059E74006E7D54806E5D52046026852E897
:10160000001F21F0400142E80013002BF6D1C7670C
:10161000C56600F05DF946E720010004DD1C000806
:1016200010B5040002D0E06F10B107E0012010BD3A
:10163000002084F87800204600F026F82420E06797
:101640002068016821F001010160606A10B1204644
:1016500000F08CFA204600F039FC0128E7D0206821
:10166000416821F4904141602068816821F02A019D
:1016700081602068016841F0010101602046BDE8F9
:10168000104000F0D7BA00002DE9F0439DB00446A9
:10169000142117A8FEF776FE5C216846FEF772FE5D
:1016A00033492068334C0327002502264FF00708F2
:1016B0004FF0904988422AD1012000900895684651
:1016C000FFF714F908B1FEF7EFFE206E40F48040FA
:1016D0002066206E00F480401C90E06C40F0010019
:1016E000E064E06C19AA00F001001C904FF4C060A7
:1016F000CDE9170682E8A00117A94846FEF734FF96
:10170000002201212520FFF783F825202AE01A492D
:10171000884229D1684600960995FFF7E7F808B195
:10172000FEF7C2FEA06D40F40030A065A06D00F48D
:1017300000301C90E06C40F00100E064E06C19AAFD
:1017400000F001001C900C20CDE9170682E8A001F2
:1017500017A94846FEF708FF002201212620FFF7BF
:1017600057F82620FFF746F81DB0BDE8F0830000CB
:1017700000380140001002400044004030B4D0F86E
:101780008030202B02D0022030BC7047A9B1A2B11A
:10179000002303660A4C0368A3420BD05B681B025C
:1017A00008D5046854E8003F43F0806344E80035FE
:1017B000002DF6D130BC00F089BC0120E4E7000028
:1017C0000080004030B4144C03680021012213480B
:1017D000A3420CD18270C170114BC18802785A5457
:1017E000491CC18001460122A3F588700FE00D4C11
:1017F000A3420FD1027141710B4B018942785A54B7
:10180000491C018105490122491CA3F5C47030BC63
:10181000FFF7B4BF30BC7047003801400000002023
:101820002C010020004400402C0200202DE9F84348
:101830000446C06F984616460D46202802D0022066
:10184000BDE8F88395B18EB10020C4F88400212052
:10185000E067FEF779FFA4F850608146A4F8526073
:10186000A0682027B0F5805F02D003E00120E7E701
:10187000206910B12E46002510E000260EE08021E0
:10188000204600F07FFCC0B9D6B116F8010B2168E4
:101890000885B4F85200401EA4F85200B4F8520073
:1018A0004B464FF00002CDF800800028E7D14FF002
:1018B0004001204600F066FC38B1E7670320BFE72F
:1018C00035F8020BC0F30800E1E7E7670020B7E74F
:1018D0007047FEE70C4810B50A4901604FF41651F5
:1018E0004160002181600C22C160C0E90412816165
:1018F000C16101624162FFF793FE002801D072B618
:10190000FEE710BD003801401C0000200C4810B557
:101910000A4901604FF416514160002181600C2298
:10192000C160C0E904128161C16101624162FFF7D7
:1019300077FE002801D072B6FEE710BD00440040DB
:10194000A4000020FEE7FEE7704700002DE9F0410B
:10195000444C05468846E0680026810728680DD07B
:10196000E16801F00301814216D1A8B1E06869681D
:10197000C0F30210401C88420ED120E0012804D0A0
:10198000022805D0032807D108E02168890701E073
:1019900021684905002907DB01265FE021688903EA
:1019A00002D421684903F5E7E1686A686FF00F0324
:1019B00021F0730103EB021211430143E16020683F
:1019C00020F080602060FEF7BFFE074605E000BF04
:1019D000FEF7BAFEC01B022837D820680001F7D4F2
:1019E000B8F1000F18D0B8F1010F1DD0287D4FF0CD
:1019F0007E41400801EB4060A96840EA012021696E
:101A0000194A114008432061206840F0806020603E
:101A1000FEF79AFE07461AE0A868297B000240EA12
:101A2000C1602169114AECE7288A1149400801EB9D
:101A30004050A96840EA012021690E4AE1E700BF51
:101A4000FEF782FEC01B022801D9032606E02068AB
:101A50000001F5D52069A969084320613046BDE839
:101A6000F081000000100240FF80FFF9FF80FF07B7
:101A70000000E0FFFF809FFFF8B51C4D06460024E4
:101A8000A86DC00002D5FEF729FF0DE0A86D40F05B
:101A90008050A865A86D00F080500090FEF71EFFF2
:101AA000A96D21F08051A965B0F5007F04D0802E8A
:101AB00007D94FF003040AE0802E08D9A02E01D8E0
:101AC00004E001D1022402E0702E00D10124084874
:101AD000016821F0070121430160006800F0070060
:101AE000A04201D00120F8BD0020F8BD0010024046
:101AF000002002407047FEF72DBE10B596B044217D
:101B00006846FEF73FFC142111A8FEF73BFC4FF49A
:101B10000070FEF7AFFE08B172B6FEE7102000902D
:101B200000240120CDE90604602008900A9468464C
:101B3000FFF752F908B172B6FEE70F20CDE91104A4
:101B400013941494002111A81594FFF72DF8002880
:101B500001D072B6FEE716B010BD00000248016861
:101B600041F470010160704788ED00E090F82410A6
:101B7000090706D501684A68436B22F400421A43FC
:101B80004A6090F82410C90706D001684A68836A41
:101B900022F400321A434A6090F82410890706D5CF
:101BA00001684A68C36A22F480321A434A6090F896
:101BB0002410490706D501684A68036B22F4802285
:101BC0001A434A6090F82410C90606D501688A684D
:101BD000836B22F480521A438A6090F8241089069D
:101BE00006D501688A68C36B22F400521A438A60E2
:101BF00090F82410490611D501684A68036C22F454
:101C000080121A434A60016CB1F5801F06D1016849
:101C10004A68436C22F4C0021A434A6090F82410C8
:101C2000090606D501684A68806C22F40022024346
:101C30004A6070472DE9F84300260446C0F88460E6
:101C4000FEF782FD8046206800684FF020050007FF
:101C50006FF07E4712D543460022290420460097A4
:101C600000F090FA50B1216851E8000F20F0800098
:101C700041E80002002AF6D1E56721E0206800680B
:101C8000400722D5434600224FF4800120460097AA
:101C900000F078FAC8B1216851E8000F20F4907084
:101CA00041E80002002AF6D12068083050E8001F01
:101CB00021F0010140E80012002AF5D1C4F880505B
:101CC00084F878600320BDE8F883E567C4F88050A5
:101CD00044F8606F666026760020F4E710B5806AED
:101CE0000021A0F85A10A0F85210FFF73BFB10BDDE
:101CF000016851E8002F22F4907241E80023002B84
:101D0000F6D10168083151E8002F22F0010241E8C4
:101D10000023002BF5D1016E012908D1026852E899
:101D2000001F21F0100142E80013002BF6D1202102
:101D3000C0F88010002101668166704710B5B0F8C8
:101D40005C20D0F880300168222B04D0088B40F052
:101D50000800088310BD898C436D11401980416DC6
:101D6000891C4165B0F85A10491EA0F85A10B0F805
:101D70005A100029EED1016851E8002F22F4907228
:101D800041E80023002BF6D10168083151E8002F0B
:101D900022F0010241E80023002BF5D12021C0F8F8
:101DA0008010002181664166154B02689A420BD073
:101DB0005268120208D5036853E8002F22F08062AF
:101DC00043E80024002CF6D1026E012A02D0FFF76E
:101DD000F9FC10BD0166026852E8001F21F01001F5
:101DE00042E80013002BF6D10168CA69D243D2063B
:101DF00001D410220A62B0F85810FFF7B1FA10BDF2
:101E00000080004010B5B0F85C20D0F88030016848
:101E1000222B04D0088B40F00800088310BD898C69
:101E20001140426D1170416D491C4165B0F85A1066
:101E3000491EA0F85A10B0F85A100029EED10268D5
:101E400052E8001F21F4907142E80013002BF6D1F4
:101E50000168083151E8002F22F0010241E8002317
:101E6000002BF5D12021C0F8801000218166416649
:101E7000154B02689A420BD05268120208D50368CB
:101E800053E8002F22F0806243E80024002CF6D1B2
:101E9000026E012A02D0FFF795FC10BD01660268B0
:101EA00052E8001F21F0100142E80013002BF6D188
:101EB0000168CA69D243D20601D410220A62B0F87E
:101EC0005810FFF74DFA10BD008000402DE9F04199
:101ED0000446016880682269E3691043626900254D
:101EE0001A431043714F0A68714B1A4002430A604B
:101EF00020684168E26821F4405111434160216843
:101F0000A069B94201D0226A10438A6822F4306283
:101F100002438A606749236867488B420DD1D0F835
:101F2000880010F0030006D0012847D0022843D0D3
:101F3000032830D144E001212EE060498B420BD1CF
:101F4000D0F8880010F00C0034D0042836D00828CF
:101F500032D00C281FD133E059498B420BD1D0F835
:101F6000880010F0300025D0102827D0202823D05A
:101F7000302810D124E0BB420DD1D0F8880010F4F5
:101F8000406017D0B0F5806F18D0B0F5006F13D057
:101F9000B0F5406F14D010214A4A00264FF400409B
:101FA000BB422FD171B102290FD004290FD00829CB
:101FB00073D10FE00021EFE70221EDE70421EBE709
:101FC0000821E9E7FEF792FE03E0104602E0FEF783
:101FD000B1FEE8B3626802EB420181425DD8B0EB2A
:101FE000023F5AD8010E030250081818714100230D
:101FF000FEF73DF9344AA0F5407191424DD8216871
:10200000C8604BE0E3694FF6EF77834228D1092996
:1020100043D2DFE801F005080B420D4242421000B6
:10202000FEF764FE06E0FEF773FE03E0104602E0F2
:10203000FEF780FE60B14100606801EB5001B1FB2A
:10204000F0F0A0F11001B94227D84FF6F07100E08E
:1020500024E00140C0F3420001432068C1601DE05C
:1020600009291AD2DFE801F005080B190D19191911
:102070001000FEF73BFE06E0FEF74AFE03E01046C6
:1020800002E0FEF757FE48B1616800EB5100B0FB7B
:10209000F1F0A0F11001B94205D90125A666284644
:1020A000E666BDE8F08180B2A9E70000008000404C
:1020B000F369FFEF00380140001002400044004087
:1020C000004800400024F400FFFC0F0030B54165DB
:1020D000A0F85820A0F85A200022826681684FF4A8
:1020E0008055FF23A94204D1016969BB40F2FF1169
:1020F00030E07F2431B3B1F1805F28D0A0F85C20BC
:10210000C0F884202221C0F880100168083151E80D
:10211000002F42F0010241E80023002BF5D1816835
:10212000A94201D10169D9B1144981660169C9B1D6
:10213000016851E8002F42F4907241E80023002B1F
:10214000F6D118E0016941B9A0F85C30D8E701691F
:1021500019B13F21A0F85C10D2E7A0F85C40CFE7AE
:1021600007498166026852E8001F41F0200142E8F9
:102170000013002BF6D1002030BD0000051E000822
:102180003D1D00082DE9F047994617460E460446C6
:102190004FF00008089D2FE0681C2DD0FEF7D4FA00
:1021A000A0EB0900A84214D89DB120680168490736
:1021B00022D5C169C94309070DD408250562204607
:1021C000FFF796FDC4F8845084F878800120BDE8BC
:1021D000F0870320FBE7C069C04300050CD42168E9
:1021E0004FF4006008622046FFF782FD2020C4F80B
:1021F000840084F87880ECE72068C06936EA000043
:1022000004D00020B842C7D00020E0E70120F9E761
:102210000148FFF7A9B800001C0000200148FFF7A3
:10222000A3B80000A4000020FEE70907090E00285B
:1022300004DB00F1E02080F80014704700F00F008C
:1022400000F1E02080F8141D7047704770B50C460F
:102250000988461E0546885D78B101280CD1491EC3
:1022600089B2284600F09EF8218888552188000A06
:1022700068542088401C208070BD491E218070BD9C
:1022800086B0FEF76FFAFFF738FC14216846FEF7B8
:1022900079F83F48C16C41F08001C164C16C01F024
:1022A00080010591C16C41F00101C164C06C4FF027
:1022B000904600F001000590002210213046FEF704
:1022C0003EFA1020009001200025CDE90105694665
:1022D00030460395FEF748F9FFF7FCFAFFF716FBC7
:1022E00001222C492C48FFF749FA2A492A480122A1
:1022F000491C8830FFF742FA264C6420A570E5702F
:1023000025716571FEF71EF900F068F84FF6FF774A
:10231000A07820B3E078401CC0B2E07003281ED93A
:102320001C494FF48072891D1C48FFF78FFF012262
:1023300010213046FEF703FA18493B46E288A1F126
:102340008800FFF773FA002210213046FEF7F7F9F4
:10235000E1881248FEF716F8E580A570E57020794F
:1023600090B16079401CC0B2607103280CD93B4623
:1023700022890B490848FFF759FA21890848FEF7D6
:1023800001F82581257165711420FEF7DBF8BFE7A0
:1023900000100240000000201C0000202C01002042
:1023A0002C02002070B506464FF6FF7000224AF25C
:1023B00001040FE0B35C58405FF0000310F0010F20
:1023C0004FEA500000D060405B1C9BB2082BF5D355
:1023D000521C92B28A42EDD370BD00007FB5002539
:1023E0000095019502950DA168460395FDF7B6FF8E
:1023F000C820FEF7A7F84FF6FF730D2269460B4879
:10240000FFF714FA6420FEF79DF8094C0948E188AB
:10241000FDF7B8FF2581257165717FBD41542B4EB5
:10242000414D453D4A535F42440000001C000020DE
:10243000000000202C0100204FF04070E1EE100A57
:1024400070470000000000000000000001020304CB
:1024500006070809A0860100400D0300801A060047
:1024600000350C0040420F0080841E0000093D0032
:1024700000127A000024F40000366E010048E801E2
:10248000006CDC020000000001020304AC24000820
:10249000000000201C000000C8010008C82400083B
:1024A0001C00002074090000E40100080000000086
:1024B000000000000000000001000000100000000B
:0824C0000000000000093D00CE
:040000050800018D61
:00000001FF
